:100000000C9434000C9451000C9451000C94510049
:100010000C9451000C9451000C9451000C9451001C
:100020000C9451000C9451000C9451000C9451000C
:100030000C9451000C9451000C9451000C945100FC
:100040000C9451000C9451000C94B8000C94510085
:100050000C9451000C9451000C9451000C945100DC
:100060000C9451000C94510011241FBECFEFD8E026
:10007000DEBFCDBF11E0A0E0B1E0E4EEF2E002C0EF
:1000800005900D92A430B107D9F721E0A4E0B1E0CA
:1000900001C01D92A737B207E1F70E9441010C94FD
:1000A00070010C9400002091060130E02F5F3F4F5B
:1000B00027703327209306012091060190910401B7
:1000C000291751F0E0910501F0E0E95FFE4F8083D0
:1000D0008091060180930501089583E590E00C94DA
:1000E0008E00809105012091040190E00896821B0A
:1000F000910968E070E00E9448010895E0910401D0
:10010000F0E0E95FFE4F80812091040130E02F5F35
:100110003F4F277033272093040108959093760171
:100120008093750183E08093C4001092C500E0ECD9
:10013000F0E0808182608083E1ECF0E08081886182
:10014000808380818068808308959091C00095FFAE
:10015000FCCF8093C6000895CF93DF93EC01899183
:10016000882319F00E94A500FACFDF91CF9108955E
:100170001F920F920FB60F9211242F933F934F931C
:100180005F936F937F938F939F93AF93BF93EF93FF
:10019000FF938091C600E0917501F0917601099579
:1001A000FF91EF91BF91AF919F918F917F916F914F
:1001B0005F914F913F912F910F900FBE0F901F9025
:1001C00018958FEF80937E00ECE7F0E080818064EB
:1001D0008083808180628083EAE7F0E080818460B0
:1001E000808380818062808380818860808308959D
:1001F000EAE7F0E08081886080838081806480838A
:100200000895EAE7F0E08081877F8083089583B7CF
:10021000817F83BF78940895CF930E9471008823D3
:1002200039F10E947E00C82F8D3099F481E191E070
:100230000E94AC0080E091E00E94AC0084E6E1E125
:10024000F1E0DF011D928A95E9F7109210011092FA
:100250000F0180910F01909110019C012F5F3F4F82
:100260003093100120930F01FC01EF5EFE4FC0831D
:1002700083B7816083BF889583B78E7F83BFCF911B
:1002800008950E946D000E9407010E940C01FDCF9D
:1002900097FB072E16F4009407D077FD09D00E9433
:1002A0005C0107FC05D03EF4909581959F4F089521
:1002B000709561957F4F0895AA1BBB1B51E107C044
:1002C000AA1FBB1FA617B70710F0A61BB70B881FE6
:1002D000991F5A95A9F780959095BC01CD01089575
:0402E000F894FFCFC0
:0402E4000D0A0000FF
:00000001FF
