:100000000C9434000C9451000C9451000C94510049
:100010000C9451000C9451000C9451000C9451001C
:100020000C9451000C9451000C9451000C9451000C
:100030000C9451000C9451000C9451000C945100FC
:100040000C9451000C9451000C94B8000C94510085
:100050000C9451000C9451000C9451000C945100DC
:100060000C9451000C94510011241FBECFEFD8E026
:10007000DEBFCDBF11E0A0E0B1E0E8EFF2E002C0EA
:1000800005900D92A430B107D9F721E0A4E0B1E0CA
:1000900001C01D92A131B207E1F70E9449010C9401
:1000A0007A010C9400002091060130E02F5F3F4F51
:1000B00027703327209306012091060190910401B7
:1000C000291751F0E0910501F0E0E95FFE4F8083D0
:1000D0008091060180930501089583E590E00C94DA
:1000E0008E00809105012091040190E00896821B0A
:1000F000910968E070E00E9452010895E0910401C6
:10010000F0E0E95FFE4F80812091040130E02F5F35
:100110003F4F2770332720930401089590931001D7
:1001200080930F0183E08093C4001092C500E0EC3F
:10013000F0E0808182608083E1ECF0E08081886182
:10014000808380818068808308959091C00095FFAE
:10015000FCCF8093C6000895CF93DF93EC01899183
:10016000882319F00E94A500FACFDF91CF9108955E
:100170001F920F920FB60F9211242F933F934F931C
:100180005F936F937F938F939F93AF93BF93EF93FF
:10019000FF938091C600E0910F01F0911001099545
:1001A000FF91EF91BF91AF919F918F917F916F914F
:1001B0005F914F913F912F910F900FBE0F901F9025
:1001C00018958FEF80937E00ECE7F0E080818064EB
:1001D0008083808180628083EAE7F0E080818460B0
:1001E000808380818062808380818860808308959D
:1001F000EAE7F0E08081886080838081806480838A
:100200000895EAE7F0E08081877F8083089583B7CF
:10021000817F83BF78940895CF93DF93CDB7DEB706
:10022000C456D1090FB6F894DEBF0FBECDBFCE01C4
:1002300001967C0184E6F70111928A95E9F700E0C6
:1002400010E084E6C82E0E9471008823D1F00E943D
:100250007E00D82EFDE08F130EC0C7010E94AC00B7
:1002600080E091E00E94AC00F7018C2D11928A95FC
:10027000E9F700E010E0F701E00FF11FD0820F5F17
:100280001F4F83B7816083BF889583B78E7F83BFFD
:10029000DACF0E946D000E9407010E940C0180E0ED
:1002A00090E0089597FB072E16F4009407D077FD91
:1002B00009D00E94660107FC05D03EF49095819517
:1002C0009F4F0895709561957F4F0895AA1BBB1BA2
:1002D00051E107C0AA1FBB1FA617B70710F0A61B46
:1002E000B70B881F991F5A95A9F780959095BC0167
:0802F000CD010895F894FFCF41
:0402F8000D0A0000EB
:00000001FF
